:020000020000FC
:100000000C9434000C9400000C9400000C9400003C
:100010000C9400000C9400000C9400000C94000060
:100020000C9400000C9400000C9400000C94000050
:100030000C9400000C9400000C94CC000C94000074
:100040000C9400000C9400000C9400000C94000030
:100050000C9400000C9400000C9400000C94000020
:100060000C9400000C940000FF24A0E0B1E000E03C
:10007000FD920A95E9F70FEF0DBF08E00EBF0DE006
:1000800005B907E004B901EA0093800009E0009394
:1000900081000EE307BD02E004BD02E005BD02E001
:1000A00000936E00ECEAFAE0F89488249924662420
:1000B0007724A3E3B1E0FD92FD92FC927894F8944A
:1000C0004F2C5F2C0591400E5F1C0F3FD9F3A3E32B
:1000D000B1E02D913D916C91240D351D6F1DA3E371
:1000E000B1E02D933D936C93789437D0F8948216B9
:1000F000930666067894C8F345914F3F29F0042F84
:1001000008D04078C9F3DBCF05E003BF00E004B9B5
:100110008895FF93EF93E02FEE0FFF27E25AFD4FF4
:1001200005911591C0910001C65FC23308F0CC273C
:10013000C0930001DD27CF5FDE4F2EEC33E0F89453
:10014000198308833C832B8378940FEF0D830E83F0
:10015000FF82F886EF91FF910895FF93EF93C1E03E
:10016000D1E00E811FEF011789F01E830F810395E7
:10017000053008F000E00F8348F0E885E39531F0A2
:10018000E887FF27E253FD4F04910D832A96C3337E
:1001900041F7EF91FF910895EFB66F015E01C1E065
:1001A000D1E0222433249A81EB81FC818491488020
:1001B0005980940DE51DFF1DFA3018F0E058F0400D
:1001C000FE829A83FC83EB839D811F930F93082FFC
:1001D000192F01030F911F91200C311C2A96C33354
:1001E00011F78DEF90E0281639060CF01C0181E024
:1001F0009FEF281639060CF41C0135942794379488
:10020000822D8058982F909537FC83958093880095
:1002100090938A0008947F1C8F1C9F1C6F1CF60112
:10022000E501EFBE1895000000000000000000008E
:1002300000000000000000000001010101010202B5
:100240000202020202020202020203030303030388
:100250000303030303030303030303030303E10093
:10026000EF00FD000C011C012D013F015201660150
:100270007B019101A901C301DD01FA0118023802D5
:1002800059027D02A302CB02F60223035303850326
:10029000BB03F30330046F04B304FA044605960568
:1002A000EB054606A5060A077507E7075F08DF089E
:1002B0006609F5098C0A2D0BD70B8B0C4A0D140E11
:1002C000EA0ECE0FBE10BE11CC12EA131815FFFCB9
:1002D000FAF7F5F3F0EEEBE9E7E4E2E0DEDBD9D79D
:1002E000D5D3D1CFCDCBC9C7C5C3C1BFBDBBB9B7AE
:1002F000B6B4B2B0AEADABA9A8A6A4A3A19F9E9C74
:100300009B999896959392908F8D8C8B89888685F2
:10031000848281807F7D7C7B7A7877767574737137
:10032000706F6E6D6C6B6A69686766656463626145
:10033000605F5E5D5C5B5A5958575756555453522F
:100340005251504F4E4E4D4C4B4B4A4948484746F0
:10035000454544434342414140403F3E3E3D3C3C95
:100360003B3B3A393938383737363635353433331D
:10037000323231313030302F2F2E2E2D2D2C2C2B90
:100380002B2B2A2A292828272726262525242323FC
:1003900022222121201F1F1E1E1D1D1C1C1B1A1A7C
:1003A00019191818171616151514141313121111FC
:1003B00010100F0F0E0D0D0C0C0B0B0A0A0908087C
:1003C00007070606050404030302020101000000FA
:1003D00000000101000000010303020204050605FC
:1003E00003020203030200000306060301000103E7
:1003F00002FFFCFE030605010000030401FDFAFEF6
:10040000040603FFFDFEFFFDF4EBE8EFF6F7F3EF64
:10041000EFF2F4F1E8DFE1ECF6F4EEECEFF4F5F0F6
:10042000E6E1E8F5FCF8F2F3FB0204FEF5F3FF0B5E
:100430000D0500050F141105FCFE0D1A170D0B1606
:1004400022251C0C0106141A0D0002142220140788
:10045000030E1B1A09FE0618211A0A000210180EB4
:10046000FCF504171B1207050E1A1A04EDEC001117
:100470000D00F8FD09120BF0DAE0F804F8E9E6F1F6
:10048000FF00EDCEBECCE3E8D6CAD4E9F8F4DEC670
:10049000C3DAECE3CDC5D8F1FFF7DECCD5F1FBE54F
:1004A000CDCDE7FF02F6E1DAEE0809EAD5E3021660
:1004B0001100F4FB16291EFEF30F364333201A28D1
:1004C00042482E0C0B2E4B49321F22364B4217F955
:1004D000052F44361E15233A463407F30930371DDD
:1004E0000A0D243A3A1FFAF20C2214EEDBE801114D
:1004F00006E9CED3EFF7D9B2AAC3E0ECDEC0B2C4AE
:10050000E3E1BFA6B1D6F3F8EAD5D5EF06F8CDBB47
:10051000CEF100F8E6D9E4FE07EDC3BBD9FA00EE50
:10052000DFDDF30D0EF0D0D4F50A06F6EEFD1B3636
:100530002E0DFB0B2B342411102542523F190F278F
:10054000413C23141B334A4B3212122C3D2D0E0515
:10055000142D3D33150009232811F8F80D252E1D03
:1005600001F7081E13F3DBDFF60403F1DBDFFA0B00
:10057000F8D1C1CDE2ECE4D3C8D7F4FDE4C1BFD7D4
:10058000EEF2E5D7D8F00A09EDD3D7EFFBF5E2D5C7
:10059000DDF80BFEDDCDDAF2F7EADAD4E60111FD83
:1005A000DCD7EBFEF8E6DAE0FA151B06EFF81322CB
:1005B00013FCF4FF192F2C16091B34361F060010EC
:1005C00028362914122C43391C080A1D2F331E0902
:1005D000112F3F2C0F040E232F27110210292E1349
:1005E000F6F300101302EEE8FD140EF2DBDFF1FC6F
:1005F000F7E2D1D8F60AFEE1D3DCECEFE4D2CCE0AE
:10060000000DF7DBD7E7F4EEDCCAC8DEF7FAE2CE7E
:10061000D9F1FCEED8CACFE7FCF7E1D9ED0407F534
:10062000DED4E0F805F8E6EA051C1704F5F5041633
:100630001A04F5011E2C1E0900051825200C0318AC
:10064000343C2815141F2E30200C0A243B38231369
:100650001826322E19070E2736281107101D1F14D1
:10066000FEF200191E06F2F1FF0A06F6E2DDF106BF
:1006700004EDDFEC0008FEEADADCF200F9E6E3F76D
:100680000909F8DED1D7EBF0DFCED3E9F8F1DECC03
:10069000C8D7E9E9D2C6D5EFFAF1E2DAE0F2FDF324
:1006A000DBD5EB050CFFF3F3FF0E1101EEF1091D95
:1006B0001A090004121F1A04F7011C291E0F0C1836
:1006C00029302710081B3439291D22323F3E2E19AC
:1006D000172C3F3A23192230362B1503071B2416FB
:1006E00002FF0C1A1B0CF7EDF70A0AF7E6EAFD0801
:1006F00003F4E2E0F100FAE1D6E2F5FBF2E3D9DF40
:10070000EFF5E5C9C2D3E4E5D8CCCAD6E6E6D2BF58
:10071000C3DCEDEBDED6DCECFAF5E1D7E5FE05FD5A
:10072000F0EDF8070F04EEEBFD101001F9FD0B1AC8
:100730001B0BF9FB0F1E1808061325302B1B0E167A
:10074000292F22141628393F34231C293A3724181C
:100750001D2C363222100E1C261A03FD0614180E0C
:10076000FFF4FA0A0EFFE8E8F80404F8ECE9F402F2
:1007700000ECDCE2F5FEF9EBE2E5F2FBEFD9CFDAD3
:10078000EBEEE4D7D3DCEAF0E2CDCCDCEBE8DCD670
:10079000DAE9F8FAEBDBE1F4FDF4E6E5EFFF090452
:1007A000F5EBF50506F9EBEDFB0A1007F9F7051275
:1007B0000CFDF5FC0C17190D02091C261B0B081368
:1007C0002229251B1724373B2A191B283332281DC1
:1007D0001B27322B16070D1A1F180B0206141C0FAD
:1007E000FDF7010E0E05FBF6000C0FFFEEEFFC040B
:1007F00000F4ECEDF90300EDDDE3F0F2E7DAD7DE2B
:10080000ECF3EBDBD4DEEAE8DBD0D3E0EEF2E8DBBE
:10081000DDECF6EFE2DBE1EDF7F6EAE2EBFD01F508
:10082000E7E4ECF7FCF7ECE9F80708F9EEF2FD066F
:100830000700F9FC0C191507010C191F1C130F19DF
:100840002B332A1D1D283232291E1C28363524162A
:1008500018222720150D0F1B241D0A010914150A43
:1008600000FD020F1409FCF9050E0AFDF3F3FC0468
:1008700003F6EAEDFAFEF4E6DEE2EDF3EFE0DBE6A6
:10088000F5F6E9DEDCE2EBECE3D7D6E5F2EFE1D911
:10089000DEE7EFEDE4DCE1F2FAF3E5E1E9F3F6EFB0
:1008A000E4E1EBFAFDF2E7E8F3FCFCF5ECEEFD0A1F
:1008B0000AFFFA010E151109040B1C27221513203B
:1008C0002A2C231A171F2B2F241819262C271A110C
:1008D000121B2421150D1420231A0F0A0F191F189B
:1008E0000A07111C1A0F0503080F0E02F4F4000684
:1008F00000F4EDEEF4F8F3E7DEE2F0F3EADDDAE03F
:10090000E7E9E2D7D3DDEAEBE1DADCE5EBEAE1D7D0
:10091000D9E7F1EEE3DFE4ECEFE9E0DAE1EFF5EE61
:10092000E4E4EEF6F7F1EAE9F2FE00F9F3F9050D79
:100930000D0702050F18160E0C142025211A171B7F
:1009400023272016161E26251E18181D24241C13C6
:10095000161F24201916181E221F1712161F2019E1
:10096000110E1114150E0502060B07FFF8F7FAFC1D
:10097000F9F0E9E8EEF1ECE5E2E5EAECE9E2DEE2E5
:10098000E9EBE7E2E3E9EEEFEBE7E5E9EEEDE7E3DC
:10099000E5EAEDECE7E4E5E9ECE9E4E2E6ECEEECCF
:1009A000E9E8ECF2F4F1EFF1F7FDFFFEFDFF0309DA
:1009B0000A0705090E12110F0E10141715110F1248
:1009C0001718161414171A1A181515181B1B1918AE
:1009D000191C1F1F1D1B1D1F211F1C1B1C1D1D1B48
:1009E00017141414120D090605040200FCFAFAF992
:1009F000F7F3F0EFEFEFEEECEBEBEDEEEEECECED12
:100A0000EEEFEEEDEDEDEEEEEDEBEAEAEBEBE9E825
:100A1000E7E7E7E7E6E4E4E5E6E6E6E6E7E8E9EA6D
:100A2000EAEAEBEEEFF1F2F4F6FAFDFF000103045F
:100A300005050607090B0C0C0D0E0F10100F0F10FB
:100A4000111212121314161718191A1B1D1E1E1F2D
:100A5000202123232221212121201F1D1C1A1816A9
:100A6000120F0D0C0A0805030100FEFCF9F7F7F65A
:100A7000F5F4F3F2F2F2F2F2F1F1F2F2F1F0EFEF5B
:100A8000EFEFEEEDECEBEBEAE9E8E7E7E7E7E6E5C9
:100A9000E4E4E4E3E3E3E4E5E6E8E9E9EAECEDEEE7
:0C0AA000EFF0F2F4F6F8FAFBFDFEFF00A8
:00000001FF
