:020000020000FC
:100000000C9434000C9400000C9400000C9400003C
:100010000C9400000C9400000C9400000C94000060
:100020000C9400000C9400000C9400000C94000050
:100030000C9400000C9400000C94CC000C94000074
:100040000C9400000C9400000C9400000C94000030
:100050000C9400000C9400000C9400000C94000020
:100060000C9400000C940000FF24A0E0B1E000E03C
:10007000FD920A95E9F70FEF0DBF08E00EBF0DE006
:1000800005B907E004B901EA0093800009E0009394
:1000900081000EE307BD02E004BD02E005BD02E001
:1000A00000936E00E4EAF5E3F8948824992466242A
:1000B0007724A1E5B1E0FD92FD92FC927894F8944A
:1000C0004F2C5F2C0591400E5F1C0F3FD9F3A1E52B
:1000D000B1E02D913D916C91240D351D6F1DA1E571
:1000E000B1E02D933D936C93789437D0F8948216B9
:1000F000930666067894C8F345914F3F29F0042F84
:1001000008D04078C9F3DBCF05E003BF00E004B9B5
:100110008895FF93EF93E02FEE0FFF27E459FD4FF3
:1001200005911591C0910001C65FC03508F0CC273C
:10013000C0930001DD27CF5FDE4F2CED33E0F89454
:10014000198308833C832B8378940FEF0D830E83F0
:10015000FF82F886EF91FF910895FF93EF93C1E03E
:10016000D1E00E811FEF011789F01E830F810395E7
:10017000053008F000E00F8348F0E885E39531F0A2
:10018000E887FF27E452FD4F04910D832A96C1357D
:1001900041F7EF91FF910895EFB66F015E011F9354
:1001A0000F93C1E0D1E0222433249A81EB81FC81BA
:1001B000849148805980940DE51DFF1DF53318F09A
:1001C000E058F040FE829A83FC83EB839D818C0192
:1001D0000103210C80E017FC8FEF381E2A96C135F1
:1001E00021F78FEF90E0281639060CF01C0181E012
:1001F0009FEF281639060CF41C0137FC0C940601FD
:10020000F092880020928A000C940F012094309480
:1002100008942F1C3F1C20928800F0928A000894BA
:100220007F1C8F1C9F1C6F1CF601E501EFBE0F9118
:100230001F91189500000000000000000000000061
:1002400000000000000000010101010102020202A1
:100250000202020202020202030303030303030376
:10026000030303030303030303030303E100EF009A
:10027000FD000C011C012D013F01520166017B01B3
:100280009101A901C301DD01FA01180238025902E6
:100290007D02A302CB02F602230353038503BB03B3
:1002A000F30330046F04B304FA0446059605EB0526
:1002B0004606A5060A077507E7075F08DF0866090F
:1002C000F5098C0A2D0BD70B8B0C4A0D140EEA0E78
:1002D000CE0FBE10BE11CC12EA131815FFFCFAF7B0
:1002E000F5F3F0EEEBE9E7E4E2E0DEDBD9D7D5D3D6
:1002F000D1CFCDCBC9C7C5C3C1BFBDBBB9B7B6B4DC
:10030000B2B0AEADABA9A8A6A4A3A19F9E9C9B9999
:100310009896959392908F8D8C8B89888685848210
:1003200081807F7D7C7B7A78777675747371706F4E
:100330006E6D6C6B6A696867666564636261605F55
:100340005E5D5C5B5A59585757565554535252513B
:10035000504F4E4E4D4C4B4B4A49484847464545F9
:1003600044434342414140403F3E3E3D3C3C3B3B99
:100370003A3939383837373636353534333332321F
:1003800031313030302F2F2E2E2D2D2C2C2B2B2B8E
:100390002A2A2928282727262625252423232222FE
:1003A0002121201F1F1E1E1D1D1C1C1B1A1A19197E
:1003B00018181716161515141413131211111010FE
:1003C0000F0F0E0D0D0C0C0B0B0A0A09080807077E
:1003D00006060504040303020201010000000000F8
:1003E00000000000000000FFFFFFFFFFFFFFFFFF16
:1003F000FFFFFFFFFFFFFFFFFFFFFFFFFFFFFFFF0D
:10040000FFFFFFFFFFFFFF000000000000000000F3
:1004100000000000000101010101020202020303C9
:10042000030404040505050606060707070808096E
:10043000090A0A0A0B0B0B0B0A0806040301000049
:10044000FFFEFEFDFDFDFEFEFEFFFFFF00000000C3
:100450000000000000000000000000010101010098
:1004600000FFFDFAF7F4F2F0EEEDECECECECEDED64
:10047000EEEFEFF0F1F1F2F3F3F4F4F5F5F6F7F750
:10048000F8F8F9FAFAFBFCFCFDFDFEFFFF000000A6
:100490000101020303040506070808090A0B0C0DF5
:1004A0000E0F101111121314161718191A1B1C1DF8
:1004B0001E1F20212222211F1C17110B0501FFFCEA
:1004C000FAF8F7F6F6F7F8F9FAFBFCFDFEFF000084
:1004D00000000101010102020304050607080705E7
:1004E00002FFF9F2EBE5E0DCD8D6D4D4D4D5D6D8E7
:1004F000D9DBDDDEE0E1E3E4E6E7E9EAEBECEEEFB1
:10050000F0F1F3F4F5F7F8F9FAFCFDFEFF00000155
:10051000020304050708090A0C0D0E101112131529
:100520001617191A1B1D1E1F212224252628292AC9
:100530002C2D2E2F2E2B27231F19120B04FFFBF817
:10054000F5F4F3F2F2F3F5F6F8F9FBFCFEFF000028
:10055000010102030304040607080A0B0C0D0C0A30
:100560000701FAF1E9E1DBD5D1CFCDCCCDCECFD1AA
:10057000D3D5D7D9DBDDDFE0E2E4E5E7E8EAEBED70
:10058000EEF0F1F3F4F6F7F9FAFCFDFEFF000102DC
:1005900003040607080A0B0D0E1011121415171884
:1005A0001A1B1D1E202123242627292A2B2D2E30FD
:1005B0003132312E2A26221E1A16100902FDF8F5B4
:1005C000F2F0EFEFF0F1F2F4F6F8FAFCFDFF0001C3
:1005D000020305060708090B0C0E0F111213131066
:1005E0000C05FCF1E7DED6D0CCC8C7C6C6C7C9CB60
:1005F000CDCFD2D4D6D9DBDDDFE1E3E4E6E8EAEB28
:10060000EDEFF0F2F4F6F7F9FBFCFDFF000002035A
:10061000040607090A0C0D0F1012141517181A1BDF
:100620001D1F2022242527282A2B2D2F303233343A
:10063000332F2A26211D191613110D0700FBF6F280
:10064000EFEDECECEDEEF0F2F4F7F9FCFE00010456
:100650000607090B0D0E101113151617191A1A1784
:10066000120AFFF2E6DBD2CBC6C2C0C0C0C1C3C50E
:10067000C8CACDD0D2D5D8DADCDEE0E2E4E6E8EADA
:10068000ECEEF0F2F3F5F7F9FBFDFE0000010304D8
:100690000507090A0C0E0F1113141618191B1D1E3D
:1006A0002022242527292B2C2E3031333436343088
:1006B0002B26211C181512100F0E0D0802FDF7F342
:1006C000EFEDECECECEDEFF1F4F6F9FCFE000205D9
:1006D00007090B0D0F1012141517181A1B1C1D1BE0
:1006E000170D00F3E6DBD1C9C4C0BEBDBDBFC1C399
:1006F000C6C8CBCED1D4D6D9DBDDE0E2E4E6E8EA69
:10070000ECEEF0F2F4F6F8FAFCFDFF00010204054D
:1007100007080A0C0D0F1113141618191B1D1E20A3
:10072000222426282A2B2D2F3132343534312B2503
:10073000201B1713110F0D0D0C0C0C0A0500FAF5F8
:10074000F1EEEDECECEDEFF1F4F6F9FCFF00030552
:10075000080A0C0E1012141517191A1C1D1F201F41
:100760001A1003F5E7DBD0C8C2BEBCBBBBBDBFC11E
:10077000C4C7CACDD0D2D5D8DADDDFE1E3E5E7EAF8
:10078000ECEEF0F2F4F6F8FAFCFE000102030506C6
:10079000080A0B0D0F1112141618191B1D1F202209
:1007A0002426282A2C2E3032343534302B251F1A9B
:1007B00015120F0D0B0B0A0A0B0C0D0C0903FEF89A
:1007C000F4F0EEEDEDEEEFF1F4F6F9FCFF010406C6
:1007D000090B0E1012141517191A1C1E1F212222A4
:1007E0001E1405F7E8DBD0C8C2BDBBBABABCBEC098
:1007F000C3C6C9CCCFD2D5D7DADCDFE1E3E5E8EA7E
:10080000ECEEF0F2F5F7F9FBFDFF0002030406073A
:10081000090B0C0E1012141517191A1C1E20222376
:100820002527292B2D2F3133322F29231D18131063
:100830000D0A0908080808090A0B0D0E0C0701FC2F
:10084000F7F3F1EFEEEFF0F2F4F7F9FCFF01040734
:100850000A0C0E1012141617191B1D1E2022242418
:10086000201607F9EADDD2C9C3BFBCBBBCBDBFC2FD
:10087000C4C7CBCDD0D3D6D8DBDDE0E2E4E6E9EBEC
:10088000EDEFF1F4F6F8FAFCFE00010304060708A8
:100890000A0C0D0F1113141618191B1D1F212224E9
:1008A00026282A2C2E30302D27221C16110D0A083E
:1008B00006050505050607090A0B0D0F0F0B0600B7
:1008C000FBF7F3F1F0F0F1F2F4F7FAFD000205079F
:1008D0000A0C0F11131416181A1C1D1F212325268C
:1008E00023190AFBECDFD4CBC5C0BEBDBDBEC0C35F
:1008F000C6C8CBCED1D4D7D9DCDEE0E3E5E7E9EC5E
:10090000EEF0F2F4F7F9FBFDFF0002040507080919
:100910000B0C0E1012131517181A1C1E1F2123255D
:1009200027282A2C2D2B26201A15100B0806040325
:1009300002020303040607090A0C0E10110F0A0431
:1009400000FBF7F4F2F2F2F3F5F7FAFD0002050806
:100950000A0C0F11131517191B1C1E202224262701
:10096000251B0CFDEEE1D6CDC7C2BFBEBEBFC1C4C4
:10097000C7CACCCFD2D5D8DADDDFE1E4E6E8EAEDCC
:10098000EFF1F3F5F8FAFCFE000103050607090A8A
:100990000C0D0F1012141617191B1C1E20222325D4
:1009A00027292A29241F19130E0A06040200000011
:1009B00000000102040507090B0D0E1012120F09A9
:1009C00003FFFAF7F4F3F3F4F6F8FBFD0002050871
:1009D0000A0C0F11131517191B1D1F21232527287A
:1009E000261C0EFFF0E3D8CFC8C4C1C0C0C1C3C528
:1009F000C8CBCED1D3D6D9DBDDE0E2E4E7E9EBEE3C
:100A0000F0F2F4F6F9FBFDFF0002040607080A0BFA
:100A10000C0E0F11131416181A1B1D1F202224254B
:100A20002727231E18120D08050200FFFEFEFEFFF9
:100A300000000102040608090B0D0F111314120D1A
:100A40000702FEFAF7F5F5F5F7F9FBFE00020508D7
:100A50000A0D0F121416181A1C1E202224262729EC
:100A6000271E0F00F2E4D9D0CAC5C3C1C1C2C4C693
:100A7000C9CCCFD2D4D7D9DCDEE1E3E5E8EAECEEAD
:100A8000F1F3F5F7FAFCFE000103050708090A0B6C
:100A90000D0E1012131517181A1C1D1F20222425C5
:100AA000221D17110C070300FFFDFCFCFCFCFDFEE2
:100AB000FF0001030406080A0C0E1012141615128A
:100AC0000C0600FDFAF8F7F7F8FAFCFE000205083C
:100AD0000A0D10121517191B1D1F21232527282A5F
:100AE000281F1001F3E6DBD2CCC7C4C3C3C4C6C8F9
:100AF000CBCDD0D3D5D8DADDDFE1E4E6E8EBEDEF1E
:100B0000F1F3F6F8FAFCFF000204060708090B0CE3
:100B10000D0F1012141517181A1C1D1F2122211D4C
:100B200018120C070200FDFBFAF9F9F9FAFBFCFDBB
:100B3000FF0001030507090B0D0F111314161715FC
:100B4000100A0500FDFAF9F9F9FAFCFE00020508A1
:100B50000B0D101315181A1C1E2022242627292AD3
:100B6000281F1203F5E8DDD4CDC9C6C5C5C5C7C960
:100B7000CCCED1D4D6D9DBDEE0E2E4E7E9EBEEF08F
:100B8000F2F4F6F9FBFDFF0002040607090A0B0C5C
:100B90000E0F1112141517181A1C1D1F201D1913E2
:100BA0000D0702FFFCFAF8F7F7F7F7F8F9FAFCFD82
:100BB000FF0002040607090B0D0F11131517191872
:100BC000140F090400FDFBFAFAFBFCFE0002050805
:100BD0000B0E111316181A1D1F21222426282A2B4A
:100BE00028201304F6E9DED6CFCBC8C6C6C7C8CBCB
:100BF000CDCFD2D5D7DADCDEE1E3E5E7EAECEEF003
:100C0000F2F5F7F9FBFD000103050608090A0B0DD3
:100C10000E0F1112141617191A1C1E1D1A140E0885
:100C200003FFFCF9F7F5F4F4F4F5F6F7F9FAFCFE36
:100C30000001020406080A0C0E1012141618191AE4
:100C400018130D070200FDFBFBFCFDFF0003050868
:100C50000B0E111416191B1D1F21232527292A2BC2
:100C6000281F1305F8EBE0D7D1CCC9C8C8C8CACC37
:100C7000CED1D3D6D8DBDDDFE1E4E6E8EAECEFF174
:100C8000F3F5F7F9FCFE000103050708090B0C0D4D
:100C90000E101113141617191B1C1B16110B05002F
:100CA000FCF8F6F4F3F2F2F2F3F4F6F7F9FBFCFEDB
:100CB0000001030507090B0D0F11131517181A1C56
:100CC0001B17110B0601FFFDFCFCFDFF00030609CD
:100CD0000C0E111417191B1E2022242527292B2B3B
:100CE000271F1406F9ECE1D9D2CECBCACACACBCDA4
:100CF000CFD2D4D7D9DCDEE0E2E4E6E8EBEDEFF1E9
:100D0000F3F5F7FAFCFE000103050708090B0C0DCB
:100D10000E1011131516181A1A19140E0802FEF9DE
:100D2000F6F3F2F0F0F0F0F1F2F4F5F7F9FBFDFF75
:100D300000020406080A0C0E0F11131517191B1DCB
:100D40001E1B150F090400FFFDFDFE00010306092F
:100D50000C0E111416191B1E20222426282A2B2BB8
:100D6000271F1407FAEEE3DBD4D0CDCBCBCBCDCE0F
:100D7000D0D3D5D7DADCDEE1E3E5E7E9EBEDEFF15F
:100D8000F3F5F7FAFCFE0001030507080A0B0C0D4A
:100D90000F1012131517181917120C0600FCF7F490
:100DA000F1F0EEEEEEEEEFF0F2F4F5F7F9FBFDFF09
:100DB00000020406080A0C0E10121416181A1C1E43
:100DC0001F1E19130D070300FFFEFF000103060994
:100DD0000C0E111416191B1E20222426282A2C2B37
:100DE000261E1408FCEFE5DCD6D1CFCDCDCDCECF7D
:100DF000D1D4D6D8DADDDFE1E3E5E7E9EBEDEFF1D9
:100E0000F3F5F7FAFCFE0001030507080A0B0C0EC8
:100E10000F11121416171816100A04FFFAF6F2F042
:100E2000EEEDECECEDEDEFF0F2F4F5F7F9FBFE0092
:100E300001030507090B0D0F11131517191B1D1FB2
:100E400020201C16100A050200FFFF0001030608FF
:100E50000B0E111416191B1E20222527292A2C2BB4
:100E6000251D1408FDF1E6DED7D3D0CFCECECFD1ED
:100E7000D3D5D7D9DBDDDFE2E4E6E8EAECEEEFF14B
:100E8000F3F5F7F9FCFE0001030507080A0B0D0E48
:100E900010111315161715100A03FFF9F5F1EEEDF1
:100EA000EBEBEBEBECEDEEF0F2F4F6F8FAFCFE0017
:100EB000010305070A0C0E10121416181A1B1D1F29
:100EC00021221F19130D0804010000000103060868
:100ED0000B0E111316191B1E20232527292B2C2B33
:100EE000241C1308FDF2E8DFD9D4D2D0CFD0D1D260
:100EF000D4D5D8DADCDEE0E2E4E6E8EAECEEF0F2C3
:100F0000F3F5F7F9FBFE0001030507080A0B0D0FC7
:100F10001012131516140F0903FEF9F4F0EEEBEAA4
:100F2000EAE9EAEAEBEDEEF0F2F4F6F8FAFCFE009C
:100F3000020406080A0C0E10121416181A1C1E1FA2
:100F40002122211D18120C070402010102030507CA
:100F50000A0D101215181B1D20222527292B2C2BBA
:100F6000251D140B00F6ECE4DDD8D4D2D2D1D2D3B7
:100F7000D4D6D8DADCDEE0E2E4E6E8EAEBEDEFF145
:100F8000F2F4F6F8FAFCFE0002040607090B0D0E57
:100F90001012131514100A04FEF9F4F0EDEBE9E851
:100FA000E8E8E8E9EAECEDEFF1F3F5F7FAFCFE002A
:100FB000010406080A0C0E10121416181A1B1D1F25
:100FC000202223221F1A140E09060302020304061C
:100FD000080B0E101316191C1E212426282B2C2C4E
:100FE0002820170F06FDF3EAE2DCD8D5D4D3D3D4FA
:100FF000D5D6D8DADCDEDFE1E3E5E7E9EAECEEEFCF
:10100000F1F3F5F7F9FBFDFF01030507090A0C0EE3
:1010100010111313100B05FFFAF5F0EDEAE8E7E6FF
:10102000E6E6E7E8EAEBEDEFF1F3F5F7F9FCFE00B1
:10103000010306080A0C0E10121416181A1B1D1EA6
:101040002021232424201A140E0A06040303040575
:10105000070A0D0F1215181B1E212326282B2D2DD4
:101060002820170F0800F6EDE5DFDAD7D5D5D5D55E
:10107000D6D7D9DADCDEE0E1E3E5E7E8EAECEDEF4C
:10108000F1F2F4F6F8FAFDFF00020507080A0C0E6B
:10109000101112100C0600FBF5F1EDEAE8E6E5E5AB
:1010A000E5E6E7E8EAECEDEFF1F3F5F8FAFCFF002E
:1010B000020406080A0C0E10121416181A1C1D1F22
:1010C0002021232425231D17110C090604040406DE
:1010D000080A0C0F1215181B1E212426292B2D2C53
:1010E000271E160E0700F7EEE7E0DCD8D7D6D6D6D7
:1010F000D7D8D9DBDCDEE0E2E3E5E6E8EAEBEDEFCA
:10110000F0F2F4F6F8FAFDFF00020506080A0C0EEC
:101110001011110D0701FCF6F1EDEAE8E6E5E4E453
:10112000E5E6E7E8EAECEEF0F2F4F6F8FBFDFF00A6
:10113000020406080B0D0F11131517191A1C1D1F99
:10114000202223242625211B150F0B080605050642
:10115000080A0C0F1215181B1E212427292B2D2CD1
:10116000261D140C0600F8F0E8E2DDDAD8D7D7D750
:10117000D8D9DADBDDDEE0E2E3E5E6E8EAEBEDEE46
:10118000F0F2F4F6F8FAFCFF00020406080A0C0E6E
:1011900010100D0802FDF7F2EEEAE7E5E4E3E3E400
:1011A000E5E6E7E9EAECEEF0F2F4F7F9FBFDFF0122
:1011B000030507090B0D0F11131517191A1C1D1F15
:1011C000202223252627241E18120D0A07060607AB
:1011D000080A0C0F1215181B1E212427292B2D2B52
:1011E000241C130B0500F9F1EAE4DFDBD9D8D8D8C9
:1011F000D9DADBDCDDDFE0E2E3E4E6E8E9EBEDEEC3
:10120000F0F2F4F6F8FAFCFF00020406080A0C0EED
:101210000F0E0904FEF8F3EEEBE8E5E4E3E2E3E3A6
:10122000E4E6E7E9EBEDEFF1F3F5F7F9FBFD00019B
:10123000030507090B0D0F11131517191A1C1D1F94
:1012400020222325262726211B15100C0907070716
:10125000080A0C0F1215181B1E212427292B2D2AD2
:10126000231A120A0400FAF2EBE5E1DDDBDAD9D940
:10127000DADBDCDDDEDFE0E2E3E4E6E8E9EBEDEE3D
:10128000F0F2F4F6F8FAFCFF00020406080A0C0E6D
:101290000E0B0500FAF4EFEBE8E5E3E2E2E2E2E34D
:1012A000E4E6E7E9EBEDEFF1F3F5F7F9FCFE000119
:1012B000030507090B0D0F11141617191B1C1E1F10
:1012C00020222325262828241E18130E0B0908087F
:1012D000090A0D0F1215181B1E212427292B2C2952
:1012E000211910090300FAF4EDE7E2DFDCDBDADABA
:1012F000DBDCDCDDDEDFE1E2E3E5E6E8E9EBEDEEB9
:10130000F0F2F4F6F8FAFCFF00020406080A0C0DED
:101310000B0600FBF5F0ECE8E5E3E2E1E1E1E2E3F6
:10132000E4E6E7E9EBEDEFF1F3F5F8FAFCFE000196
:10133000030507090C0E1012141617191B1C1E1F8B
:101340002022232527282927221C16110D0B0909E5
:101350000A0B0D0F1215181B1E212427292B2C28D0
:1013600020180F0803FFFBF5EFE9E4E1DEDDDCDC2C
:10137000DCDDDDDEDFE0E1E2E3E4E6E8E9EBECEE34
:10138000F0F2F4F6F8FAFCFE0002040608090B0B72
:101390000701FCF6F1ECE8E5E3E1E1E0E0E1E2E39E
:1013A000E4E6E8E9EBEDEFF1F4F6F8FAFCFE000113
:1013B0000306080A0C0E1012141617191A1C1D1F0A
:1013C0002022232527282A2925201A14100D0B0A4C
:1013D0000A0C0D101215181B1E212427292B2C274F
:1013E0001F170F0802FFFCF7F1EBE7E3E0DEDDDD9E
:1013F000DDDDDEDFDFE0E1E2E3E5E6E7E9EBECEEB1
:10140000F0F2F4F6F8FAFCFE0002040607090A07F7
:1014100002FDF7F2EDE9E5E3E1E0DFDFE0E0E1E343
:10142000E4E6E8EAECEEF0F2F4F6F8FAFCFE00018D
:101430000406080A0C0E1012141617191A1C1D1F88
:101440002022232527282A2B29231D18130F0D0CB2
:101450000C0C0E101215181B1E212426292B2B26CE
:101460001E160E0702FFFCF8F3EDE9E5E2E0DFDE11
:10147000DEDEDFDFE0E1E1E2E3E5E6E8E9EBECEE2A
:10148000F0F2F4F6F8FAFCFE000103050708070283
:10149000FEF8F2EDE9E5E2E0DFDFDEDFDFE0E1E3E9
:1014A000E5E6E8EAECEEF0F2F4F6F8FAFCFE00020B
:1014B0000406080A0C0E1012141617191A1C1D1F08
:1014C0002022232527292A2C2B27211B16120F0D1A
:1014D0000D0D0E101215181B1E212326292B2A254F
:1014E0001D150D0601FFFDFAF5F0EBE7E4E2E0E083
:1014F000DFDFE0E0E0E1E2E3E4E5E6E8E9EBECEEA3
:10150000F0F2F4F6F8FAFCFE00010305070602FE0D
:10151000F8F2EDE8E5E2E0DEDEDDDEDEDFE0E1E38D
:10152000E5E6E8EAECEEF0F2F4F6F8FAFDFF000288
:101530000406080B0D0F1112141617191A1C1D1F83
:101540002022242527292A2C2D2A251F1915120F80
:101550000E0E0F101215171A1D202326292B2A24D0
:101560001C140C0601FFFDFBF7F2EEEAE6E4E2E1F3
:10157000E0E0E0E1E1E2E2E3E4E5E6E8E9EBEDEE1C
:10158000F0F2F4F6F8FAFCFE000103050502FEF89D
:10159000F2EDE8E4E1DFDDDDDCDCDDDEDFE0E1E330
:1015A000E5E6E8EAECEEF0F2F4F6F8FBFDFF000207
:1015B0000407090B0D0F1112141617191A1C1D1F01
:1015C0002022242527292B2C2E2D29231D181412E7
:1015D000100F10111315171A1D202326282B29234D
:1015E0001B130C0601FFFEFCF9F4F0ECE8E6E4E264
:1015F000E1E1E1E1E1E2E3E3E4E5E6E8E9EBEDEF97
:10160000F0F2F4F6F8FAFCFE0001030401FDF7F233
:10161000ECE7E3E0DEDCDBDBDBDBDCDDDEE0E1E3D3
:10162000E5E6E8EAECEEF0F2F4F6F9FBFDFF010383
:101630000507090B0D0F1112141617191A1C1D1F7F
:101640002122242627292B2D2F2F2D27211C17144B
:10165000121111111315171A1D202326282A2923C8
:101660001B130C0601FFFEFDFBF7F3EEEBE8E5E4D0
:10167000E3E2E2E2E2E2E3E4E4E5E7E8EAEBEDEF0D
:10168000F1F2F4F6F8FAFCFE00010200FCF7F1EBCF
:10169000E6E3DFDDDBDADADADADBDCDDDEE0E1E36C
:1016A000E5E6E8EAECEEF0F2F5F7F9FBFE000103FF
:1016B0000507090C0E0F1113141617191A1C1E1FFB
:1016C0002122242628292B2D2F31302B25201B17B2
:1016D000141212121315171A1C1F2225282A292248
:1016E0001A120B060100FEFEFDF9F5F1EDEAE7E541
:1016F000E4E3E2E2E2E3E3E4E5E6E7E8EAEBEDEF88
:10170000F1F3F5F7F8FAFCFE000100FBF5EFEAE56E
:10171000E1DEDBDAD9D8D8D9D9DADBDDDEE0E1E306
:10172000E5E6E8EAECEEF0F3F5F7FAFCFE00020479
:1017300006080A0C0E101113141617191B1C1E2074
:1017400021232526282A2C2E3031322F29241E1A17
:10175000171413131415171A1C1F2225282A2821C1
:1017600019120B050100FFFFFEFBF7F3EFEBE9E6B3
:10177000E5E4E3E3E3E3E4E4E5E6E7E9EAECEDEFFF
:10178000F1F3F5F7F9FBFDFF00FEF9F3EDE8E3DF18
:10179000DCDAD8D7D7D7D7D8D9DADBDDDEE0E1E39A
:1017A000E5E7E9EBEDEFF1F3F6F8FAFDFF000305ED
:1017B00007090B0D0E101113141618191B1D1E20EE
:1017C00022232527282A2C2E303233322E28221D80
:1017D000191715141516171A1C1F2225282A282137
:1017E00019120B060200FFFFFFFDF9F5F1EDEAE823
:1017F000E6E5E4E4E4E4E4E5E5E6E8E9EAECEEEF76
:10180000F1F3F5F7F9FBFDFEFCF7F1EBE5E0DCD9D0
:10181000D7D6D5D5D5D5D6D7D8DADBDDDEE0E2E32D
:10182000E5E7E9EBEDEFF1F4F6F9FBFE0001030566
:1018300007090B0D0E1012131516181A1B1D1F2168
:1018400022242527292B2C2E30323434322C2621E9
:101850001D1917161616181A1C1F2225282A2721AB
:1018600019110B060200FF0000FFFCF8F4F0ECE990
:10187000E7E6E5E4E4E4E5E5E6E7E8E9EBECEEF0ED
:10188000F2F4F6F7F9FBFCF9F4EEE8E3DEDAD7D58B
:10189000D3D3D3D3D4D4D5D7D8D9DBDDDEE0E2E4BB
:1018A000E5E7E9EBEEF0F2F4F7F9FCFE00020406DE
:1018B00008090B0D0E1012131517181A1C1E1F21E4
:1018C00023242627292B2D2F3133353635312B254F
:1018D000201C19181717181A1C1F2225282A272020
:1018E00019110B06020000000000FEFAF6F2EEEB02
:1018F000E9E7E6E5E5E5E5E6E7E7E8EAEBEDEEF062
:10190000F2F4F6F8F9F9F6F1EBE5DFDBD7D4D2D152
:10191000D0D0D1D2D3D4D5D7D8DADBDDDFE0E2E442
:10192000E6E8EAECEEF1F3F5F8FAFDFF010305074E
:10193000080A0B0D0F1012141517191B1C1E20225C
:10194000232526282A2B2D2F3133353738352F29BB
:10195000241F1C1A1818191B1D1F2225292A27208D
:1019600018110A0502000000000100FCF8F4F0ED77
:10197000EAE8E7E6E6E6E6E7E7E8E9EAECEDEFF1D4
:10198000F2F4F6F8F7F3EDE7E1DCD7D4D1CFCECE21
:10199000CECFD0D1D2D4D5D7D8DADCDDDFE1E3E5C4
:1019A000E7E9EBEDEFF1F4F6F9FBFE0001040507C2
:1019B000090A0C0D0F11121416181A1B1D1F2022D4
:1019C000242527282A2C2E30323436383938342E24
:1019D00028231F1C1A1A1A1C1D202326292A2720F7
:1019E00018100A0502000000000201FFFAF6F2EFEB
:1019F000ECEAE8E7E7E6E7E7E8E9EAEBECEEEFF147
:101A0000F3F4F5F3EEE8E2DDD8D3D0CECCCBCBCBFC
:101A1000CCCDCFD0D2D4D5D7D9DADCDEE0E2E4E643
:101A2000E8EAECEEF0F2F5F7FAFCFF000204060734
:101A3000090A0C0E0F11131517191A1C1E1F21234A
:101A4000242627292B2C2E31333537393A3B38338E
:101A50002D27231F1D1C1C1D1E202326292A261F5F
:101A600018100A050200000001020200FDF9F5F25B
:101A7000EEECEAE9E8E8E8E8E9EAEAECEDEEEFF1B5
:101A8000F2F2EEE8E2DDD7D3CFCCCAC8C8C8C8C9E5
:101A9000CACCCED0D1D3D5D7D9DADCDEE0E2E4E6C9
:101AA000E8EAECEFF1F3F5F8FAFCFF0002040607B0
:101AB000090A0C0E0F11131517191B1C1E1F2123C9
:101AC000242628292B2D2F31333537393B3C3D3BFC
:101AD00036312B2723211F1F2021232528292822A7
:101AE0001B130D07030100000002030302FFFBF7B5
:101AF000F4F0EEECEAE9E9E9EAEAEBECEDEEEFEF1F
:101B0000EBE6E0DAD4D0CCC9C7C5C4C4C4C4C5C7E9
:101B1000C8CACCCFD1D3D5D7D8DADCDEE0E2E4E74F
:101B2000E9EBEDEFF1F3F6F8FAFCFE00010305072F
:101B3000090A0C0E1012131517191B1C1E20212345
:101B40002526282A2B2D2F31333537393B3D3F4071
:101B50003F3B36302B2724222222232527292A25E2
:101B60001E160F090501000000010305060300FD14
:101B7000F8F5F1EFEDECEBEBEBEBECEDEDEDE9E394
:101B8000DDD7D1CDC9C6C3C2C1C0C0C0C1C2C4C6E1
:101B9000C8CACCCED0D3D5D7D9DBDDDFE1E3E5E7CA
:101BA000EAECEEF0F2F4F6F8FBFDFF0002030507A5
:101BB000090B0D0E10121416181A1C1D1F202224BA
:101BC0002627292B2C2E30323436383A3C3E4041E1
:101BD00042403B35302B282524242426272929253B
:101BE0001E160F090401000000010306070602FF8C
:101BF000FBF7F4F1EFEDECECECECEDEDEAE4DDD726
:101C0000D1CBC7C4C1BFBEBEBEBEBEBFC0C2C3C5AE
:101C1000C8CACCCED1D3D5D8DADCDEE0E2E4E6E93E
:101C2000EBEDEFF1F3F5F7F9FBFDFF000204060819
:101C30000A0B0D0F11131517191B1C1E202123252C
:101C400026282A2C2D2F31333537393B3D3F414251
:101C50004444403A35302B2827262626282A2A2590
:101C60001D160F0904010000000103060808050104
:101C7000FEFAF6F3F1EFEEEDEDECEAE5DED7D1CBCF
:101C8000C6C2BFBDBCBBBBBBBCBDBDBFC0C2C4C662
:101C9000C8CACDCFD1D4D6D9DBDDDFE1E3E6E8EAAF
:101CA000ECEEF0F2F4F6F8F9FBFDFF000204060892
:101CB0000A0C0E1012141617191B1D1F20222426A1
:101CC00027292B2D2F30323436383A3C3E404243C0
:101CD000454644403A342F2C29282728292A2925EB
:101CE0001D150E080401000000020406090A08047C
:101CF00000FDF9F6F3F1EFEEEBE6DFD8D2CBC6C18B
:101D0000BEBBB9B8B8B8B9BABBBCBDBFC0C2C4C607
:101D1000C8CBCDD0D2D5D7DADCDEE0E2E5E7E9EB1F
:101D2000EDEFF1F3F5F6F8FAFCFE00010305070903
:101D30000B0D0F11131516181A1C1E1F2123252712
:101D4000282A2C2E3031333537393B3D3F4143452E
:101D5000464848443F39342F2C2A2929292A2A2445
:101D60001D150E080300000000020407090B0B07F5
:101D70000300FCF8F5F2EFE9E1DAD2CCC6C1BDBA56
:101D8000B8B6B5B5B6B6B8B9BBBCBDBFC1C2C4C79D
:101D9000C9CBCED0D3D6D8DBDDDFE2E4E6E8EAEC8F
:101DA000EEF0F2F3F5F7F9FAFCFE00010305080A7C
:101DB0000C0E1012131517191B1D1F202224262884
:101DC000292B2D2F31323436383A3C3E404244459F
:101DD00047494A48443E38332F2C2B2A2A2B2A24A1
:101DE0001C140D0703000000000204070A0C0D0A72
:101DF0000602FFFBF6EFE6DDD4CDC7C1BDBAB7B52D
:101E0000B4B3B3B3B4B6B7B9BBBDBEC0C1C3C5C725
:101E1000CACCCFD2D4D7D9DCDEE1E3E5E7E9EBEDFC
:101E2000EFF1F2F4F6F8F9FBFDFF00020406080AF0
:101E30000C0E10121416181A1C1E202123252729F7
:101E40002A2C2E3032343537393B3D3F414344460E
:101E5000484A4B4C48433D37332F2D2C2B2B2A24FB
:101E60001C140C0702000000000204070A0D0E0DEE
:101E7000090500F9EFE4DAD1C9C3BEBAB7B5B3B208
:101E8000B2B2B2B3B4B6B8BABBBDBFC0C2C4C6C8A2
:101E9000CBCDD0D3D5D8DADDE0E2E4E7E9EAECEE69
:101EA000F0F1F3F5F7F8FAFCFE0001030507090B62
:101EB0000D0F11131517191B1D1E20222426282A69
:101EC0002B2D2F31333536383A3C3E40424345477F
:101ED000494A4C4D4C48423C3733302E2C2C2A2456
:101EE0001B130C0602000000000205070A0D100F6C
:101EF0000C05FBF0E4D9D0C7C1BCB8B5B3B2B1B1E1
:101F0000B1B1B2B3B4B6B8BABCBEC0C1C3C5C7C91B
:101F1000CCCED1D4D6D9DBDEE1E3E5E8E9EBEDEEDA
:101F2000F0F2F4F6F7F9FBFDFF0001030507090BDA
:101F30000D0F121416181A1B1D1F21232527292BDC
:101F40002C2E3032343637393B3D3F4142444648EF
:101F5000494B4D4E4F4C47413B3632302E2D2A24B3
:101F60001B130C060200FF00000205080A0E100EEB
:101F700007FDF1E5DAD0C7C0BBB7B4B2B0B0B0B0BE
:101F8000B0B1B2B3B5B7B9BBBDBFC0C2C4C6C8CA91
:101F9000CDCFD2D5D7DADDDFE2E4E6E8EAECEDEF4B
:101FA000F1F3F5F6F8FAFCFEFF00020406080A0C4D
:101FB0000E10121417191B1C1E20222426282A2C4E
:101FC0002E2F31333537383A3C3E4041434547495F
:101FD0004A4C4D4F51504B453F3A35322F2E2B2412
:101FE0001B130B050200FF00000205080A0B080383
:101FF000FBF0E5DAD0C7C0BBB6B3B1B0AFAFAFB09E
:10200000B1B2B3B4B6B8BABCBEC0C1C3C5C7C9CB00
:10201000CED0D3D6D9DBDEE0E3E5E7E9EBECEEF0BA
:10202000F2F4F6F7F9FBFDFF0001030507090B0DBC
:102030000F11131517191B1D1F21232527292B2DC0
:102040002F3032343638393B3D3F414244464849CF
:102050004B4D4E505252504A443E393532302C2569
:102060001C130B060100FFFF000204050300FBF632
:10207000EFE6DCD3CAC3BDB8B4B1B0AFAFAFB0B157
:10208000B2B3B4B5B7B8BABCBEC0C2C4C6C8CACC75
:10209000CFD2D4D7DADCDEE1E3E5E7E9EBEDEFF12F
:1020A000F3F4F6F8FAFCFEFF00020406080A0C0E30
:1020B00010121416181A1C1E20222426282A2C2E30
:1020C0003031333537393A3C3E4041434547484A41
:1020D0004C4D4F515253534E48423D3834322E26C8
:1020E0001C130B050100FFFF0000FEFAF6F2EEEAFA
:1020F000E5DFD7CFC7C1BBB7B4B1B0AFAFB0B1B2F6
:10210000B3B4B5B6B8B9BBBDBFC1C3C5C7C9CBCEE3
:10211000D0D3D5D8DADCDFE1E3E6E8EAECEEF0F2A2
:10212000F3F5F7F9FBFDFF0001030507080A0C0EA4
:1021300010131517191B1D1F21232527292B2D2FA0
:102140003032343638393B3D3F4042444647494BB4
:102150004C4E5051525455524D47413B3734302725
:102160001D140C050100FFFDFAF6F1ECE8E5E2E0D4
:10217000DEDAD4CDC6C0BBB7B4B2B1B0B0B1B1B382
:10218000B4B5B6B7B9BBBCBEC0C2C4C6C8CACDCF51
:10219000D1D4D6D8DBDDDFE1E4E6E8EBEDEFF1F218
:1021A000F4F6F8FAFCFEFF0002040607090B0D0F17
:1021B000111315181A1C1E20232426282A2C2E3011
:1021C00031333537383A3C3D3F41434446484A4B2A
:1021D0004D4F505253545655514B453F3A37312885
:1021E0001E140C0501FEF9F3EDE8E3E0DDDBDADABD
:1021F000D9D7D3CDC7C2BDB9B6B4B3B2B2B2B3B4F6
:10220000B5B6B7B9BABCBEC0C2C4C5C8CACCCED0B8
:10221000D2D4D6D9DBDDE0E2E4E7E9EBEDEFF1F390
:10222000F5F7F9FBFDFE0001030506080A0C0E1088
:10223000121416181B1D1F21242527292B2D2F3082
:1022400032343637393B3C3E4042434547484A4C9E
:102250004D4F505253555657555049433E39342AE5
:102260001F150C05FEF4ECE5DFDBD7D5D4D4D4D5AF
:10227000D6D6D3CEC9C4BFBBB8B6B4B3B3B3B4B566
:10228000B6B7B9BABBBDBFC1C3C5C7C9CBCDCFD126
:10229000D3D5D7D9DBDEE0E3E5E7EAECEEF0F2F404
:1022A000F6F8FAFCFEFF0002040608090B0D0F11F8
:1022B000131517191C1E20222426282A2C2D2F31F5
:1022C00033343638393B3D3F4042444647494B4C16
:1022D0004E4F51525355565757544E48423D362C47
:1022E00021160AFEF2E7DFD8D3D0CECECECFD0D2A1
:1022F000D4D5D4D0CCC7C2BEBBB8B6B5B5B5B5B6CB
:10230000B7B9BABBBDBEC0C2C4C6C8CACCCDCFD196
:10231000D3D5D7DADCDEE1E3E6E8EAEDEFF1F3F579
:10232000F7F9FBFCFE0001030507080A0C0E10126A
:102330001416181A1D1F21232527292A2C2E303266
:10234000333537383A3C3E3F4143444648494B4C8D
:102350004E4F5152545556585957534D47413A2FA5
:10236000211100F2E5DBD3CDCAC8C8C9CACCCED092
:10237000D3D5D5D3CFCAC5C1BEBBB9B7B7B7B7B828
:10238000B9BABBBDBEC0C2C3C5C7C9CACCCED0D204
:10239000D4D6D8DADCDFE1E4E6E8EBEDEFF2F4F6F0
:1023A000F7F9FBFDFF0002040507090B0D0F1113E0
:1023B0001517191B1D1F22242628292B2D2F3032DB
:1023C000343637393B3C3E4042434547484A4B4D03
:1023D0004E50515254555758595A57514B453C2D10
:1023E0001906F5E6DAD0CAC6C4C3C4C5C7CACCCF7D
:1023F000D2D5D7D6D2CDC9C4C0BDBBB9B9B8B8B98A
:10240000BABBBDBEC0C1C3C5C6C8C9CBCCCED0D275
:10241000D4D6D9DBDDDFE2E4E6E9EBEEF0F2F4F668
:10242000F8FAFCFE0000020406080A0C0E10121452
:1024300016181A1C1E20222426282A2C2D2F313350
:10244000343638393B3D3F4042444547484A4B4D7E
:102450004E505153545657585A5B5A564F4638258A
:1024600010FDEBDDD1C9C3C0BFBFC0C3C5C8CCCF51
:10247000D2D5D8D8D5D1CCC8C4C0BEBCBABABABAE5
:10248000BBBCBEBFC1C3C4C6C7C8CACBCDCFD1D3E6
:10249000D5D7D9DCDEE0E2E5E7E9ECEEF0F2F5F7DE
:1024A000F9FAFCFE0001030507090B0D0F111315C6
:1024B00017191B1D1F21232527292B2C2E303133C3
:1024C0003537383A3C3D3F4142444547494A4C4DF7
:1024D0004E505153545657585A5B5C584E41311D1B
:1024E00008F5E4D6CBC4BFBCBCBDBEC1C4C8CBCF0D
:1024F000D2D5D8DAD8D4D0CBC7C3C0BEBDBCBCBC43
:10250000BDBEBFC1C2C4C5C6C8C9CACBCDCFD1D359
:10251000D5D8DADCDEE0E3E5E7E9ECEEF0F3F5F759
:10252000F9FBFDFF00020406080A0C0E101113153A
:1025300017191B1D1F21232527292B2D2E3032343F
:102540003537393A3C3E3F4142444647494A4C4D73
:102550004E505153545657595A5B5A54493B2B17B6
:1025600003F0E0D2C8C1BCBABABBBDC0C3C7CBCFB1
:10257000D2D6D9DBDBD8D3CFCAC6C3C0BFBEBEBE9E
:10258000BEBFC0C2C3C4C6C7C8C9CBCCCED0D2D4CC
:10259000D6D8DADDDFE1E3E5E7EAECEEF1F3F5F7D3
:1025A000F9FBFDFF00020406080A0D0E10121416B6
:1025B00017191B1D1F21232527292B2D2F303234BE
:1025C0003537393A3C3D3F4142444547484A4B4DF7
:1025D0004E505153545657595956514A423729185B
:1025E00004F2E2D4C9C1BCB9B8B9BBBEC2C5C9CD39
:1025F000D1D5D8DBDDDCD9D5D0CCC8C5C3C1C0C0EE
:10260000C0C1C1C2C3C5C6C7C8CACBCCCED0D1D445
:10261000D6D8DADCDEE0E2E4E7E9EBEDF0F2F4F75D
:10262000F9FBFDFF00020406090B0D0E1012141534
:1026300017191B1D1F21232526282A2C2E30323343
:102640003537383A3B3D3E404143444647494A4C82
:102650004D4F505254555756524C46403A342B1E0B
:102660000DFCEADBCEC4BEBAB8B8B9BCBFC3C7CB99
:10267000CFD3D7DADDDFDFDCD8D3CFCBC8C6C4C336
:10268000C2C2C2C2C3C4C6C7C9CACBCCCECFD1D3C3
:10269000D5D7D9DBDDE0E2E4E6E8EAECEFF1F3F6EA
:1026A000F8FAFDFF00020406080A0C0E10121415B9
:1026B00017191B1C1E20222426282A2C2E303133C9
:1026C000353638393B3C3E3F4142444547484A4B0A
:1026D0004D4E50525355534F49433D37332F2A22C5
:1026E0001402F1E1D3C8C0BBB8B8B9BBBEC2C6CAF8
:1026F000CED2D6DADDE0E2E0DCD8D3CFCBC8C6C597
:10270000C3C3C3C3C4C5C6C8C9CACCCDCED0D1D338
:10271000D5D7D9DBDEE0E2E4E6E8EAECEFF1F3F668
:10272000F8FBFDFF01030507090B0D0F101214162E
:1027300017191B1D1E20222426282A2C2E30313347
:10274000353638393B3C3D3F4142444547484A4B8A
:102750004D4F505253524D47413B36312D2A27227F
:102760001605F5E4D6CAC2BCB9B8B9BBBEC2C6CA62
:10277000CED2D6DADDE0E3E3E0DBD7D2CECBC8C6FB
:10278000C5C4C3C3C4C5C6C8C9CBCCCDCFD0D2D3B2
:10279000D5D7D9DBDEE0E2E4E6E8EAECEFF1F3F6E8
:1027A000F8FBFE0001030507090B0D0F11121416AB
:1027B00017191B1D1E20222426282A2C2E303133C7
:1027C000353638393A3C3D3F4042434547484A4B0D
:1027D0004D4F5152504C46403A35302C2926252138
:1027E0001708F7E7D8CDC4BEBAB9B9BBBEC2C6CACE
:1027F000CED2D6DADDE1E4E5E2DEDAD5D1CDCAC764
:10280000C6C5C4C4C5C6C7C8CACBCDCECFD0D2D327
:10281000D5D7D9DBDEE0E2E4E6E8EAEDEFF1F4F665
:10282000F9FCFE0001030507090B0D0F1113141627
:1028300018191B1D1F20222426282A2C2E2F313345
:10284000343637393A3C3D3F4042434547484A4B8E
:102850004D4F504F4B453F39342F2B2826242320F2
:10286000180AFAEADBCFC6BFBBBABABBBEC2C6CA39
:10287000CED2D6DADEE1E4E6E5E1DCD8D3CFCCC9CE
:10288000C7C6C5C5C5C6C7C9CACCCDCECFD1D2D49F
:10289000D5D7D9DBDEE0E2E4E6E8EAEDEFF1F4F7E4
:1028A000F9FCFE00020406080A0C0E0F111315169F
:1028B00018191B1D1F21232426282A2C2D2F3133C4
:1028C000343637393A3B3D3E4042434547484A4C0F
:1028D0004D4F4E4B453F39342F2B27252322211FA7
:1028E000180CFEEEDFD2C9C1BDBBBABCBEC2C5C9A1
:1028F000CED2D6DADDE1E4E6E6E4DFDBD6D1CECB3C
:10290000C8C7C6C6C6C7C8C9CACCCDCED0D1D2D416
:10291000D5D7D9DBDEE0E2E4E6E8EBEDEFF2F4F761
:10292000F9FCFE00020406080A0C0E10111315161D
:1029300018191B1D1F21232426282A2B2D2F313245
:10294000343637383A3B3D3E4041434547484A4C90
:102950004D4E4B46403A342F2B2724232120201E56
:10296000180E01F2E3D6CCC4BFBCBCBCBFC2C5C903
:10297000CDD1D5D9DDE0E4E7E8E6E2DDD8D4D0CCAE
:10298000CAC8C7C6C7C7C8C9CBCCCDCFD0D1D2D48F
:10299000D5D7D9DBDEE0E2E4E6E9EBEDEFF2F4F7E0
:1029A000F9FCFE00020406080A0C0E10111315169D
:1029B000181A1B1D1F2123242628292B2D2E3032C7
:1029C00033353738393B3C3E4041434547484A4C14
:1029D0004D4B46413B352F2B272422201F1F1E1D08
:1029E000170F03F6E8DACFC7C1BEBDBDBFC2C5C968
:1029F000CDD1D5D9DCE0E3E6E8E8E5E0DBD6D2CE20
:102A0000CBC9C8C7C7C8C9CACBCCCECFD0D1D2D406
:102A1000D5D7D9DBDEE0E2E4E7E9EBEDF0F2F4F65E
:102A2000F9FCFE00020406080A0C0E10111315161C
:102A3000181A1B1D1F2122242627292B2C2E30314A
:102A400033353638393B3C3E3F41434547484A4C95
:102A50004B48423C36302C272422201F1E1E1E1CB1
:102A6000170E05F9ECDED3CAC4C0BEBEBFC2C5C8CE
:102A7000CCD0D4D8DCE0E3E6E9EAE7E2DED9D4D092
:102A8000CDCBC9C8C8C8C9CACBCCCDCFD0D1D3D47F
:102A9000D6D7D9DBDDE0E2E4E7E9EBEDEFF2F4F6DF
:102AA000F9FBFE00020406080A0C0E10111315179C
:102AB000181A1C1D1F2122242627292A2C2E2F31CB
:102AC00033343638393B3C3E3F41434547484A4B17
:102AD00048433E37322D282522201E1D1D1D1D1C5A
:102AE000170E05FCF0E3D7CEC7C2C0BFC0C2C5C831
:102AF000CCD0D4D8DBDFE3E6E9EBE9E5E0DBD6D206
:102B0000CFCCCAC9C9C9C9CACBCCCDCFD0D1D3D4F7
:102B1000D6D7D9DBDEE0E2E5E7E9EBEDEFF1F4F65D
:102B2000F9FBFE00020406080A0C0E10121315171A
:102B3000181A1C1D1F2122242527282A2C2D2F314D
:102B400032343637393A3C3E3F41434547484A499B
:102B500045403A342E2925221F1E1D1C1C1C1C1CFE
:102B6000170E05FDF3E7DCD2CBC5C2C1C1C2C5C893
:102B7000CBCFD3D7DBDEE2E5E9EBEBE7E3DED9D57C
:102B8000D1CECCCAC9C9C9CACBCCCDCED0D1D3D471
:102B9000D6D7D9DBDEE0E2E4E7E9EBEDEFF1F4F6DE
:102BA000F8FBFE00020406080A0C0E10121315179B
:102BB000191A1C1D1F2022242527282A2B2D2E30D0
:102BC00032343537393A3C3D3F414345474949471F
:102BD000423C36302B2623201E1C1B1B1B1B1C1BA0
:102BE000170F05FEF6ECE1D7CEC8C4C2C2C3C5C8F4
:102BF000CBCED2D6DADEE2E5E8EBECEAE5E0DBD7F5
:102C0000D3CFCDCBCACACACACBCCCDCED0D1D3D4E8
:102C1000D6D8DADCDEE0E2E4E6E9EBEDEFF1F3F65C
:102C2000F8FBFD00010406080A0C0E10121315171C
:102C3000191A1C1D1F202223252628292B2C2E3053
:102C400031333537383A3C3D3F41434547484844A6
:102C50003F39322D2824201E1C1B1A1A1A1B1B1B3D
:102C6000160E05FEF6EEE4DAD2CBC7C4C3C3C5C860
:102C7000CBCED2D6DADDE1E5E8EBEDEBE8E3DED969
:102C8000D5D1CECCCBCACACACBCCCDCED0D1D3D461
:102C9000D6D8DADCDEE0E2E4E6E8EBEDEFF1F3F5DE
:102CA000F8FAFD00010306080A0C0E10121415179D
:102CB000191A1C1D1F202123242627292A2C2D2FD9
:102CC00031333537383A3C3D3F414345474846412B
:102CD0003C352F2A25211E1C1A1A19191A1A1B1BDA
:102CE000160E05FEF7F0E8DFD6CFCAC6C5C5C6C8C2
:102CF000CACED1D5D9DDE1E4E8EAEDEDEAE5E0DBE5
:102D0000D7D3D0CDCCCBCBCBCBCCCDCECFD1D3D5D5
:102D1000D6D8DADCDEE0E2E4E6E8EAEDEFF1F3F55E
:102D2000F8FAFDFF010306080A0C0E10121416171C
:102D3000191A1C1D1F202123242527282A2B2D2F5B
:102D400031333436383A3C3D3F4143454747443EB2
:102D500038322C27221F1C1A19181819191A1B1B74
:102D6000170E05FEF7F1EBE3DAD3CDC9C7C6C7C826
:102D7000CBCED1D5D9DCE0E4E7EAECEEECE8E3DE5B
:102D8000D9D5D1CFCDCCCBCBCCCCCDCED0D1D3D54A
:102D9000D6D8DADCDEE0E2E4E6E8EAECEFF1F3F5DF
:102DA000F8FAFDFF010306080A0C0E10121416179C
:102DB000191A1B1D1E1F212223252628292B2D2EE3
:102DC00030323436383A3C3E3F4143454645413B3C
:102DD000352F2924201D1A191817171819191A1A0E
:102DE000160F06FEF7F1ECE6DED7D1CCC9C8C8C98C
:102DF000CBCED1D4D8DCE0E3E6E9ECEEEDEAE5E0D9
:102E0000DBD7D3D0CECDCCCCCCCDCECFD0D1D3D5BB
:102E1000D7D8DADCDEE0E2E4E6E8EAECEEF1F3F55E
:102E2000F7FAFCFF010306080A0C0E10121416171D
:102E3000191A1B1C1E1F202223242627292A2C2E68
:102E400030323436383A3C3D3F41434545433E37C6
:102E5000312B26211D1A18171616171718191A1AAA
:102E6000170F06FEF7F1ECE8E2DBD5D0CCCAC9CAF1
:102E7000CCCED1D4D8DCDFE2E6E8EBEEEEECE8E352
:102E8000DED9D5D2CFCECDCCCDCDCECFD0D1D3D52E
:102E9000D7D8DADCDEE0E2E4E6E8EAECEEF1F3F5DE
:102EA000F7FAFCFF000306080A0D0F11121415179C
:102EB000181A1B1C1D1F202122242527282A2C2EEE
:102EC00030323436383A3C3D3F414345443F3A3353
:102ED0002D27221E1B1817161515161718191A1A42
:102EE000160F06FEF7F1ECE9E5DFD9D4CFCDCCCC57
:102EF000CDCFD1D4D8DBDEE2E5E8EBEDEFEEEAE5CD
:102F0000E0DBD7D4D1CFCECDCDCECFCFD0D2D3D59D
:102F1000D7D8DADCDEE0E2E4E6E8EAECEEF0F3F55E
:102F2000F7FAFCFF000306080B0D0F11121415171A
:102F300018191B1C1D1E202122242527282A2C2E6F
:102F400030323436383A3C3E3F414343413B352FE3
:102F500029231F1B18161514141515161718191ADE
:102F6000160F06FEF7F1ECE9E7E3DDD8D3D0CECEBD
:102F7000CED0D2D5D8DBDEE1E4E7EAEDEFEFECE846
:102F8000E3DED9D6D3D1CFCECECFCFD0D1D2D3D509
:102F9000D6D8DADCDEE0E2E4E5E8EAECEEF0F3F5E0
:102FA000F7FAFCFF000306080B0D0F10121415169C
:102FB00018191A1B1D1E1F2122232526282A2B2DF6
:102FC0002F31333637393B3D3F4143423D37312A7C
:102FD00025201C1916141313131415161718191A73
:102FE000170F06FFF7F1EDEAE8E6E2DDD8D4D2D01C
:102FF000D0D1D3D5D7DADDE0E3E6E9ECEEF0EEEAC6
:10300000E6E1DCD8D5D2D1D0CFCFD0D0D1D2D3D574
:10301000D6D8DADCDEE0E2E4E6E8EAECEEF0F3F55E
:10302000F7FAFCFF010306080B0D0E10121315161C
:1030300017181A1B1C1E1F2022232526282A2B2D79
:103040002F31333537393B3D3F41413E38322C2615
:10305000211C19161413121212131415161819190B
:10306000160F07FFF7F1EDEAE9E8E6E2DDD8D5D380
:10307000D2D3D4D5D7DADCDFE2E5E8EBEEF0F0ED41
:10308000E8E4DFDBD7D4D2D1D0D0D0D0D1D2D3D5E1
:10309000D6D8DADCDEE0E2E4E6E8EAECEEF0F3F5DE
:1030A000F7FAFCFF010306080A0C0E1011131415A1
:1030B0001718191B1C1D1F202223242628292B2DFD
:1030C0002F31333537393B3D3F403E39332D2721B2
:1030D0001D191614121111111112131516181919A0
:1030E000171007FFF8F2EDEAE9E9E9E6E2DDD9D7E2
:1030F000D5D4D5D6D7DADCDFE2E5E8EBEDF0F1EFB9
:10310000EBE6E1DDD9D6D4D2D1D1D1D1D2D2D4D54A
:10311000D7D8DADDDFE0E2E4E6E8EAECEEF1F3F559
:10312000F8FAFDFF010306080A0C0E10111314151E
:103130001718191A1C1D1F2022232526282A2B2D7B
:103140002F31333637393B3D3F3D39332D27211C55
:1031500019151311100F0F10101213141617191937
:1031600017100700F8F2EEEBEAEAEBEAE6E2DEDA45
:10317000D8D7D6D7D8DADCDEE1E4E7EAEDF0F2F131
:10318000EEE9E4E0DCD8D6D4D3D2D2D2D2D3D4D5AF
:10319000D7D9DBDDDFE1E3E4E6E8EAECEFF1F3F6D3
:1031A000F8FBFDFF010305080A0C0E0F11121415A0
:1031B0001618191A1C1D1F2022232526282A2C2EFA
:1031C0003032343537393B3D3C38332D27211C18FC
:1031D0001512100F0E0E0E0F1011131416171819CA
:1031E00017100800F9F3EEECEAEAEBECEBE7E2DFAC
:1031F000DBD9D8D8D8DADBDEE1E4E7EAEDF0F2F3A8
:10320000F0ECE7E2DEDAD8D5D4D3D3D3D3D3D4D617
:10321000D7D9DBDDDFE1E3E5E7E9EBEDEFF1F4F64C
:10322000F8FBFDFF01030507090B0D0F1112131524
:103230001617191A1C1D1F2122232526282A2C2E79
:103240003032333537393B3B37322C26201B1714AD
:10325000110F0E0D0C0D0D0E0F1112141517181A5B
:1032600018110900FAF4EFECEBEBECEEEEEBE7E310
:10327000DFDCDAD9D9DADCDEE0E3E6E9ECEFF2F420
:10328000F2EFEAE5E1DDDAD7D5D4D4D3D4D4D5D67C
:10329000D7D9DBDDDFE1E3E5E7E9EBEDEFF1F4F6CC
:1032A000F8FBFDFF00020507090B0D0F10121315A7
:1032B0001617191A1C1D1F2122242527282A2C2EF7
:1032C0003031333537393935302A251F1A16121067
:1032D0000E0C0B0B0B0B0C0D0F1012141517191AEB
:1032E00018120A02FBF5F0EDEBEBECEEF0EFECE779
:1032F000E3E0DDDBDBDBDCDEE0E3E6E9ECEFF2F490
:10330000F5F2EEE9E5E1DDDBD9D7D6D6D6D6D7D8CA
:10331000D9DBDDDEE0E2E4E6E8EAECEEF0F2F4F63A
:10332000F8FBFDFF00020507090B0D0F1012141525
:103330001618191B1C1E20212324252728292B2C75
:103340002E2F31323434312C27211C1814100D0B40
:103350000908080808090A0C0E0F11131517181A86
:1033600018120A02FBF4EFECEAEAEBECEFF0EFEBF9
:10337000E7E3E0DEDDDDDEDFE1E4E7EAEDF0F3F5F3
:10338000F7F5F2EEEAE6E3E0DEDDDCDBDBDBDBDCFF
:10339000DDDDDFE0E1E3E4E6E8EAECEEF0F2F4F6AE
:1033A000F8FBFDFF00020507090B0D0F11131416A2
:1033B00017191A1C1D1F21222325262728292A2AEE
:1033C0002B2C2E2F2F2C27221D1915120F0C0A081B
:1033D000070605050607090A0C0E11131517181A1A
:1033E00019130B02FBF4EEEBE9E9EAEBEDF0F1EE79
:1033F000EAE7E3E1E0DFE0E1E3E5E8EBEEF1F3F655
:10340000F8F8F6F3EFEBE8E5E3E1E0DFDFDEDEDE40
:10341000DEDEDFDFE0E2E4E6E8EAECEEF0F2F4F62E
:10342000F8FBFDFF00030507090B0E10111315171C
:10343000181A1B1D1F202223252626272828292964
:103440002A2A2B2926221D1915120F0D0B090807F0
:1034500006050403040507090B0E10121517191AA7
:1034600019140C03FCF4EEEAE8E8E8EAECEFF0F0FB
:10347000EEEAE7E5E3E2E2E3E5E7E9ECEFF1F4F7B2
:10348000F9FBFAF7F3F0EDEAE8E6E4E2E1E0DFDE8B
:10349000DDDDDDDDDFE1E4E6E8EAECEEF0F2F4F6B6
:1034A000F8FAFDFF00030507090C0E101214161898
:1034B000191B1C1E202123242626272828282828DB
:1034C000292825201C1814110E0C0B0A09080707BF
:1034D00006050403030406080B0D10121517191B2B
:1034E0001A150D05FDF5EEE9E7E7E7E9EBEDF0F17B
:1034F000F0EEEBE8E6E6E5E6E7E9EBEDF0F2F5F80D
:10350000FAFCFCFAF7F4F1EEEBE8E6E4E1DFDDDCEF
:10351000DADADADCDFE1E3E6E8EAECEEF0F2F4F640
:10352000F8FAFD00FF00020407090C0E111315172D
:103530001A1B1D1F212324262728292A2B2B2B2940
:10354000251F19120C070301010203050608090BC8
:103550000C0C0C0B0A09070606080C0F1215181A9A
:103560001C1C1B150E05FDF4ECE6E4E4E5E7E9EBB5
:10357000EEF1F3F5F4F2F1EFEFEEEFF0F1F3F4F634
:10358000F8FAFCFDFEFDFAF6F1ECE6E1DCD8D5D464
:10359000D5D6D7D9DADDDFE2E4E6E9EBEDEFF1F3FA
:0435A000F5F7F9FB47
:00000001FF
